:020000040800F2
:10000000004001208D3100086D310008D531000815
:100010006F310008713100087331000800000000E2
:10002000000000000000000000000000D5310008C2
:100030007531000800000000D5310008111F0008CC
:10004000D5310008D5310008D5310008D531000878
:10005000D5310008D5310008712400087B24000840
:10006000852400088F24000899240008D531000851
:10007000D5310008D5310008D5310008D531000848
:10008000D5310008D5310008D5310008D531000838
:10009000D5310008D5310008D5310008A324000867
:1000A000D5310008D5310008D5310008D531000818
:1000B000D5310008D5310008D5310008D531000808
:1000C000D5310008D5310008D5310008D5310008F8
:1000D000D5310008D531000829310008D531000894
:1000E000C92400083D2A0008D5310008D531000890
:1000F000D531000800000000D5310008D5310008D6
:10010000D5310008D5310008D5310008D5310008B7
:10011000D5310008D5310008D531000800000000B5
:10012000D5310008000000000000000000000000C1
:1001300000000000000000005FF808F110B5054C59
:10014000237833B9044B13B10448AFF30080012383
:10015000237010BD8C00002000000000AC8500085A
:1001600008B5034B1BB103490348AFF3008008BD3A
:100170000000000090000020AC85000808B5034B8B
:10018000DB6A9847024B04221A7008BDA884000855
:10019000C600002008B5034BDB6A9847024B0522D6
:1001A0001A7008BDA8840008C600002008B5034BDB
:1001B000DB6A9847024B02221A7008BDA884000827
:1001C000C600002008B5034BDB6A9847024B0322A8
:1001D0001A7008BDA8840008C6000020F8B50746BC
:1001E0000C4616461D46094BDB6A9847084B1C8097
:1001F00022463946074806F001FF074B1E70074BA1
:100200001D70074B01221A70F8BD00BFA8840008BA
:1002100000000020A4030020C4000020C50000202E
:10022000C60000202DE9F0438BB001F049FF01F03A
:1002300064FE8848884B0360884B8360884B43602A
:10024000884BC360884B0361884E33689847F368D6
:100250008748984740F6B8330893002507950695D8
:1002600005950124049403954FF00809CDF80890F2
:1002700001944FF00708CDF8008002232A460E2192
:100280002046F769B847099408950795069505949F
:10029000049503950295CDF80490009523464246B7
:1002A00002212046B569A847736B4FF47A709847CE
:1002B0000DE0002C5CD06F4B1B88DBB96E4B00222D
:1002C0001A7001F059FE694B1B6E03B198476A4BD7
:1002D0001B78013B042BF4D801A252F823F000BF95
:1002E000B3020008EF030008EF030008D70300087B
:1002F0004104000804226149614806F0ABFE58B190
:10030000042260495E4806F0A5FE38B3574B5B6B8C
:100310004FF47A709847D1E75B4800F004F9584BE6
:1003200050221A7049225A704E229A704722DA706F
:10033000042304E0191F524AD1540133DBB29AB2AC
:100340004C4909888A42F5D3012000F0A1F8474BB7
:100350009B6A484A11784A489847AFE74B4800F0F3
:10036000E2F8424B5B6B4FF47A7098470024A5E7A4
:10037000404B1B88002BA1D004224249404806F084
:1003800069FE30B1394B5B6B4FF47A7098470124AA
:1003900094E73D4800F0C7F8394B50221A704F22BD
:1003A0005A704E229A704722DA70042304E0191F13
:1003B000334AD1540133DBB29AB22E4909888A42BA
:1003C000F5D3012000F064F8284B9B6A294A117884
:1003D0002B48984772E72D4800F0A5F8234B5B6B3C
:1003E0004FF47A709847244B00221A7069E744B999
:1003F0001E4B5B6B4FF47A7098471F4B00221A70AC
:100400005FE71F4B50221A7049225A704E229A7091
:100410004722DA70042304E0191F194AD15401332A
:10042000DBB29AB2134909888A42F5D3012000F061
:100430002FF80E4B9B6A0F4A117811489847DCE75A
:100440000A4B5B6B4FF47A7098470B4B00221A7083
:1004500037E700BFA80000207D010008DD0100088B
:1004600095010008AD010008C5010008A884000836
:1004700000A1BC3300000020C6000020A07E0008C0
:10048000A4030020987E0008840900207005002045
:1004900008B501F09CFE08BD0131038991FBF3F022
:1004A00003FB101080B2704700230380438041603B
:1004B0000281704738B504460D464188FFF7ECFFCE
:1004C000608063681D5438BD38B5044645680188AE
:1004D000FFF7E2FF0346285C238038BD028840888E
:1004E000824214BF00200120704710B504464188A5
:1004F000FFF7D2FF2388984214BF0020012010BDCF
:1005000010B582B0059C01949DF81040009401F054
:10051000FDFE02B010BD08B501F05EFE08BD08B5D5
:1005200001F0D8FE08BD08B501F088FF08BD000045
:100530000D4B1A685369516989B110B40468196880
:100540008C4208D91A465B6951690029F6D150617D
:100550000023436101E05061436110BC704750616A
:1005600000234361704700BFC8000020054B1B6893
:100570001BB1834203D05B69FAE70020704701207A
:10058000704700BFC800002070B5044602F002F9B1
:10059000054601236372266802F0D4F92844864296
:1005A00003D3206802F0DCF970BD02F0CBF92844D7
:1005B0002060F6E708B5054B1B680BB100225A72A4
:1005C0004361024B1860FFF7DFFF08BDC800002041
:1005D00000230360436003724372C160036143619F
:1005E0007047000010B582B0044601A801F07CFC01
:1005F000ECB12046FFF7BAFFC8B963682360012356
:10060000237200236372114B1B68ABB102F09AF99D
:100610002368184420600D4B1B681B68984211D258
:100620002046FFF7C7FF01A801F063FC02E001A824
:1006300001F05FFC02B010BD02F03EF82046FFF76B
:10064000B9FFF0E72046FFF773FFECE7C800002092
:1006500010B502F099F8044602F02EF8001B1B4B6F
:100660001B6863B11C4602E0002111606469626985
:100670002AB111688142F7D9091A1160F6E743B12E
:100680005969124A116000221A72DA68A2B1186917
:1006900090470E4B1B688BB11C6802F053F98442E3
:1006A0000CD20A4A13685969116000221A72DA687A
:1006B0001AB118699047ECE7FEE7FEE7034B1868AC
:1006C00018B1437A0BB9FFF75FFF10BDC8000020D7
:1006D00010B582B0044601A801F006FC1B4B1A6855
:1006E0005AB154B100232372A2420AD013462BB34D
:1006F000A34220D01A465B69F9E701A801F0F9FB93
:100700001FE0537A73B100235372506920B10F4B2D
:100710001860FFF739FF11E002F052F80B4B00228E
:100720001A600BE0536913B1084A136006E0074BE7
:1007300000221A6002E05B692BB1536101A801F04D
:10074000D8FB02B010BD00235361F7E7C8000020BA
:1007500038B50446084602F01FF805462046FFF764
:10076000B7FF02F017F8854202D22060606038BD02
:100770002846FAE708B502F0DBF802F016F808BDE3
:1007800038B5044608B9204638BD02F0D1F8054610
:10079000204602F001F8281A02F007F80446F2E7B2
:1007A00010B5447804B110BD0124447002F01CFB64
:1007B000F9E710B584B09DF8204002949DF81C40E4
:1007C00001949DF81840009402F040FB04B010BD65
:1007D00008B502F0DBFB08BD08B502F005FC08BD5A
:1007E00008B502F021FC08BD08B502F03CFC08BDCC
:1007F000002308E0FEE7114B03EBC103187910BC9E
:1008000070470133DBB2142B17D819460B4A52F844
:1008100033208242F5D810B45A1C084C54F83220C8
:100820008242E8D80133DBB2142BE3D81946034ADD
:1008300052F833208242F5D8EEE7FEE7A87E0008A2
:10084000064B93F8E1303BB9044B93F80C311BB9DC
:10085000024B012283F80C21704700BFE403002003
:10086000014B93F8E0007047E4030020F8B5074619
:100870000E4615460C4C00212046FFF750FE47F06F
:100880008001A4F1400002F06DFA002405E0315D22
:10089000064802F067FA0134E4B2AC42F7D3012112
:1008A0000148FFF73CFEF8BDB004002070040020B2
:1008B00000B583B002AB03F8011D01221946FFF712
:1008C000D5FF03B05DF804FB10B5114BC3F8E4008D
:1008D00005F092FE0CA3D3E9002305F007FF06F014
:1008E000C7F90446C0F307410620FFF7E1FFC4F350
:1008F00007210720FFF7DCFFE1B20820FFF7D8FF50
:1009000010BD00BFAFF300808DEDB5A0F7C6903FDE
:10091000E4030020F8B507460E4615460D4C0021AD
:100920002046FFF7FCFD07F07F01A4F1400002F034
:1009300019FA002406E00021074802F013FA3055A6
:100940000134E4B2AC42F6D301210248FFF7E7FDDF
:10095000F8BD00BFB00400207004002000B583B0D3
:1009600001220DF10701FFF7D5FF9DF8070003B045
:100970005DF804FB000000002DE9F047884618B13F
:10098000012858D00020E9E0874CB4F8FC5027201B
:10099000FFF7E4FF20F0F8000130284405F03CFEAA
:1009A00094F8FE30002B3CD00022002305F0E8FC38
:1009B00004460D463020FFF7D1FF30F0F90333D065
:1009C00000227A4B2046294605F0DAFC04460D4603
:1009D000404605F021FE22462B4605F0D1FC724B25
:1009E00093F800311BBB0022002305F0C9FC002254
:1009F0006F4B05F07BFE04460D466B4BD3F8F800B9
:100A000005F0FAFD02460B462046294605F098FF00
:100A10000022684B05F06AFE05F05EFC06F028F93E
:100A20009CE00022614BC1E700220023CAE70022BC
:100A30004FF08043D9E75C4BD3F82031012B00F015
:100A40008F80002B00F09480022B00F08D80002618
:100A50000027DFF85491D9F824A1012000FA0AF008
:100A600005F0DAFD04460D4632463B4600204F496C
:100A700005F066FF22462B4605F038FE04460D467B
:100A8000B9F82A0105F0C8FD00224B4B05F078FCAF
:100A900022462B4605F02AFE06460F464FEA8A00FC
:100AA000C0EBC80099F82E8100EB081099F82C31A2
:100AB000002B61D04FF01408A0EB08001C3005F0AB
:100AC0009BFD80468946384B93F82831002B56D041
:100AD0000220AAEB0000800005F08EFD02460B46C6
:100AE0004046494605F02CFF05F0EAFA8046894663
:100AF0002D4B93F82901043005F08EFD02460B467C
:100B00004046494605F0F2FD804689460022002312
:100B100006F072F818B94FF000084FF000090022F3
:100B2000234B4046494605F02BFC02460B46204627
:100B3000294605F0DBFD02460B463046394605F0F6
:100B40001FFC00221B4B05F0D1FD0FA3D3E90023AE
:100B500005F016FC05F03CFB06F08AF8BDE8F087CE
:100B60000BA7D7E9006774E70BA7D7E9006770E721
:100B70000BA7D7E900676CE74FF000089CE700205F
:100B8000A7E700BFAFF300802B8716D9CEF7EF3F62
:100B90000000000080840E410000000080841E419F
:100BA000000000008084FE40E40300200000F03FCD
:100BB0000000204000408F400000114008B520B1E7
:100BC00001280AD04FF0FF3006E01120FFF7C6FEE3
:100BD000C0F34700404200B208BD1B20FFF7BEFE35
:100BE00080B28B3800B2F7E710B5044688B1002018
:100BF00005F044FA204605F051FA0120FFF7AEFE59
:100C000041B221F007012143C9B20120FFF750FE94
:100C100010BD012005F032FAEFE7000008B50748E3
:100C2000FFF756FD0648FFF753FD0020FFF7DCFFF6
:100C3000044B002283F8E02008BD00BF58050020C7
:100C400028050020E403002008B50748FFF740FD11
:100C50000648FFF73DFD0120FFF7C6FF044B0022C9
:100C600083F8E02008BD00BF5805002028050020BB
:100C7000E403002070B50546584B93F8E1301BB1F2
:100C8000012B42D0002629E0544C94F80261402008
:100C9000FFF764FE00F0030141F00C014020FFF774
:100CA00007FE4120FFF75AFE60F03E01C9B2412025
:100CB000FFF7FEFD3520FFF751FE00F03F0084F8FE
:100CC0001A011E210D20FFF7F3FD002384F80C31DB
:100CD00084F80D31A4F81831A4F816314FF480725D
:100CE00000213F4806F095F93C4B012283F8E020B3
:100CF000002D55D1394B93F8E130002B59D0002EFF
:100D000067D10620FFF770FF70BD344B93F8313187
:100D10003BB33320FFF722FE40F04101C9B233203C
:100D2000FFF7C6FD19213B20FFF7C2FD2B4B93F8BF
:100D3000326193F82F3133B31D211120FFF7B8FD35
:100D40004020FFF70BFE00F033014020FFF7B0FD1D
:100D500000210F20FFF7ACFD00210D20FFF7A8FDBB
:100D6000BCE73320FFF7FAFD41B221F0410141F029
:100D7000010101F0BF013320FFF79AFD1D213B2047
:100D8000FFF796FDD2E71F211120FFF791FD4020CC
:100D9000FFF7E4FD00F03F014020FFF789FDD7E7B2
:100DA000104C29462046FFF7D3FC2046FFF71AFCDB
:100DB000A0E70520FFF718FF002EA5D10A4C074B2E
:100DC000D3F808112046FFF7C3FC2046FFF70AFCC2
:100DD0009AE70520FFF708FF96E700BFE40300202D
:100DE000D0000020580500204005002008B501462D
:100DF0002848FFF7ADFC284B93F8E13063B1012B95
:100E000025D0254B022283F8E0202248FFF7EAFB99
:100E10000320FFF7E9FE08BD4020FFF79FFD00F02B
:100E2000030141F010014020FFF742FD4120FFF790
:100E300095FD00F03E014120FFF73AFD3520FFF718
:100E40008DFD00F03F00144B83F81A01D9E7124BD7
:100E500093F82F3173B9F7211120FFF729FD4020B6
:100E6000FFF77CFD00F03F0141F040014020FFF71B
:100E70001FFDC6E7F5211120FFF71AFD4020FFF7FF
:100E80006DFD00F0330141F040014020FFF710FDFF
:100E9000B7E700BF28050020E403002008B50C4B8D
:100EA00093F8E130012B12D1FA211120FFF700FD58
:100EB0004020FFF753FD00F0FC014020FFF7F8FC55
:100EC000034B032283F8E0200720FFF78DFE08BDC7
:100ED000E403002010B504460120FFF73FFD10F0A9
:100EE000800F21D11C4B002283F8E1201A4B93F88C
:100EF000E130A34217D0184B83F8E140012C18D100
:100F0000FFF78CFE0120FFF729FD60F07F01C9B2D9
:100F10000120FFF7CDFC00214020FFF7C9FC002194
:100F20004120FFF7C5FC10BD0B4B012283F8E120E7
:100F3000DCE7FFF773FE0120FFF710FD00F07F01F3
:100F40000120FFF7B5FC00214020FFF7B1FC302164
:100F50004120FFF7ADFCE6E7E403002038B5184B6D
:100F60001860184C21461848FFF732FB21461748F5
:100F7000FFF72EFB21461648FFF72AFB04F0E2FF9D
:100F80000020FFF731FE134804F084FF00240CE03A
:100F9000114A04EB4403D518D05CFFF79BFFA978F6
:100FA0006878FFF785FC0134E4B2102CF0D90020FA
:100FB000FFF790FF094B002283F8E02038BD00BF07
:100FC000CC000020DD1C000828050020580500206A
:100FD0004005002004000020587F0008E4030020A2
:100FE000F8B507460C4616461D46FFF773FF204628
:100FF000FFF76AFC0520FFF7F7FD0120FFF748FA2D
:10100000FFF7B8FB04462046FFF7BAFBA84206D21A
:101010003846FFF7D3FDB042F5DD002400E001249F
:10102000FFF7FCFD2046F8BD38B50120FFF752FF61
:10103000FF211120FFF73CFC0520FFF7D5FD00251F
:101040002C460BE00120FFF723FA2C20FFF786FC4B
:1010500000F00100A04005430134E4B21F2CF1D997
:10106000FFF7DCFD284638BD2DE9F04F85B0074677
:101070000C4615460093BDF83C90BDF840300393F4
:101080009DF844809DF8483002939DF84C609DF88F
:1010900058B09DF85CA0FFF71DFF2FB1012F00F0A5
:1010A000878005B0BDE8F08F994FC7F8F040C7F8CA
:1010B000F8500E9BC7F8F43087F8FE80029B87F843
:1010C000FF3087F8006187F801B187F802A1A7F81F
:1010D000FC90284605F090FA82468B4602460B4665
:1010E00000208C4905F02CFCCDE90001039805F0A7
:1010F00093FADDE9002305F0F9FA0022864B05F0AA
:10110000F5FA05F0B5FDC7F8080152465B467EA129
:10111000D1E9000105F014FC05F0AAFD85B2290A09
:101120000220FFF7C5FBE9B20320FFF7C1FB204611
:10113000FFF75EFB01461220FFF7BAFB0E98FFF7A0
:1011400057FB01461320FFF7B3FB4FEA1921252077
:10115000FFF7AEFB5FFA89F12620FFF7A9FBB8F194
:10116000000F1ED002993220FFF7A2FB3020FFF7BC
:10117000F5FB00F06F01B8F1000F17D16FF07F00A1
:10118000014341EA0611C9B23020FFF791FB31203B
:10119000FFF7E4FB40F04001C9B23120FFF788FBC4
:1011A0007FE7FF213220FFF783FBDFE70020E7E73F
:1011B000574BC3F82041C3F82451009A83F82921E2
:1011C000A3F82A9183F82C81029A83F82D2183F8C1
:1011D0002E619DF8502083F82F219DF8542083F82C
:1011E000302183F831B183F832A10C2D03D8052DBD
:1011F00002D8062500E00C251CB9A5F10B03012B34
:1012000056D9012C52D0424B002283F828211D20B0
:10121000FFF7A4FBA401E4B2009BD900C9B20C43C0
:101220004FEA8801C9B20C437600F6B22643384B28
:1012300093F8281131431D20FFF73AFB1E20FFF7DA
:101240008DFB00F00C002901C9B20843039CC4F3D4
:10125000012101431E20FFF72BFBE1B21F20FFF706
:1012600027FB4FEA19212020FFF722FB5FFA89F1C3
:101270002120FFF71DFBB8F1000F1ED1244B93F87E
:101280002F31FBB9062D2DD03120FFF767FB41B27E
:1012900021F0070141F0030101F0FB013120FFF7CC
:1012A00007FB0A213720FFF703FBFAE60C2DAAD132
:1012B000174B012283F82821A9E702992220FFF782
:1012C000F7FADBE74B20FFF749FB60F07F01C9B27B
:1012D0004B20FFF7EDFA0E4B93F830112420FFF767
:1012E000E7FACFE73120FFF739FB41B221F00701E0
:1012F00041F0050101F0FD013120FFF7D9FA0C2181
:101300003720FFF7D5FACCE60000000080847E414C
:10131000E40300200000204000408F400000000057
:101320002DE9F04F83B08146009101921C469DF853
:101330003480BDF838709DF83C609DF840509DF8B1
:1013400044A09DF84CB0FFF7C5FD009804F01AFECC
:10135000B9F1000F05D0B9F1010F63D003B0BDE8BA
:10136000F08F854B009A83F8E8200198C3F8EC00D1
:10137000C3F8F0400C9AC3F8F820A3F8FC7083F887
:10138000FE6083F8005183F801B1149AC3F8042178
:1013900005F032F974A3D3E9002305F0A7F905F0AD
:1013A00067FC84B2210A0420FFF782FAE1B205202B
:1013B000FFF77EFA0C9805F01FF902460B466CA168
:1013C000D1E9000105F0BCFA05F052FC84B2210A13
:1013D0000220FFF76DFAE1B20320FFF769FA390A3C
:1013E0002520FFF765FAF9B22620FFF761FA3020D1
:1013F000FFF7B4FA00F06F0196B96FF07F00014378
:1014000041EA0511C9B23020FFF752FA3120FFF747
:10141000A5FA40F04001C9B23120FFF749FA9DE733
:101420000020ECE7544B009A83F81C21C3F82041BC
:101430000C9AC3F8242183F82981A3F82A7183F830
:101440002C6183F82FA19DF8482083F8302183F880
:101450002E5183F831B1149AC3F834210C9B0C2B14
:1014600004D8052B04D806230C9301E00C230C931D
:101470001CB90C9B0B3B012B4CD9012C47D03E4B8C
:10148000002283F82821BAF1000F48D11D20FFF770
:1014900065FAA101C9B24FEAC8085FFA88F841EAC3
:1014A0000801B600F6B20E436D00EDB23543324B83
:1014B00093F8281129431D20FFF7FAF91E20FFF7A2
:1014C0004DFA00F00F010C9B1B01DBB219431E20EB
:1014D000FFF7EEF9390A2020FFF7EAF9F9B22120E7
:1014E000FFF7E6F90C9B062B29D03120FFF736FADF
:1014F00041B221F0070141F0030101F0FB0131206D
:10150000FFF7D6F90A213720FFF7D2F926E70C9B1F
:101510000C2BB4D1184B012283F82821B3E74B20C0
:10152000FFF71CFA60F07F01C9B24B20FFF7C0F94A
:10153000114B93F830112420FFF7BAF9A6E73120B8
:10154000FFF70CFA41B221F0070141F0050101F06B
:10155000FD013120FFF7ACF90C213720FFF7A8F986
:10156000FCE600BFAFF300808DEDB5A0F7C6903F5D
:101570000000000080847E41E403002030B58BB081
:101580000D464FF47A7404FB02F4FFF79DF90894BA
:101590000020079006900590049003900523029385
:1015A00001904FF496530093034602462946FFF7F5
:1015B000B7FE3120FFF7D2F900F0BF013120FFF76D
:1015C00077F9F0214020FFF773F9A0214120FFF7C0
:1015D0006FF9084D21462846FFF7BAF8064B02225C
:1015E00083F8E0202846FEF7FDFF0320FFF7FCFA12
:1015F0000BB030BD28050020E403002000000000EF
:1016000038B53D4B93F8E030012B02D0022B53D07C
:1016100038BD394B93F8E130C3B1012BF8D1364BCB
:1016200093F82F31002BF3D002211220FFF740F95D
:10163000324B1B68002BEBD05C69002CE8D01C20DF
:10164000FFF78CF900F03F00A047E1E72A4B9B6EC3
:101650006BB3294BB3F80C31012BD9D12848FFF7D4
:1016600037F8254C012384F80D311120FFF776F966
:101670004008404284F80E011B20FFF76FF9050275
:101680001C20FFF76BF9284304F0C6FF18A3D3E929
:10169000002305F02BF805F0C3FAC4F810010C2064
:1016A000FFF75CF9C0F3471084F81401B0E7124B60
:1016B000012283F80C21CCE70F4B93F8E130012B8A
:1016C000A6D10D4B93F82F31002BA1D0022112206F
:1016D000FFF7EEF8094B1B68002B99D05C69002CD2
:1016E00096D01C20FFF73AF900F03F00A0478FE7A3
:1016F0000000000080844E40E4030020CC00002065
:101700004005002008B5114B93F8E130012B1CD1A6
:101710001220FFF723F910F0010F0BD00521122042
:10172000FFF7C6F80A4B1B687BB19B696BB10120C0
:1017300098470AE004211220FFF7BAF8044B1B680F
:101740001BB19B690BB10020984708BDE403002042
:10175000CC00002008B50A4601460020FFF786F8B5
:1017600008BD000030B583B005468DF80710444B26
:1017700093F8E1301BB1012B3AD0002027E0404B19
:101780000022A3F818219DF80710A3F8161193F86A
:10179000FE3003BB01210DF10700FFF7DBFF9DF8D1
:1017A0000720531EDBB23F2B19D8354B83F81B2182
:1017B000334C94F81B112846FFF7CCFF94F81B31EB
:1017C000B4F818211344A4F81831D4F80401FFF731
:1017D0000DFB03B030BD3220FFF76AF8DFE7294682
:1017E000284801F0C8FC264B202283F81B21DFE7A4
:1017F000234B93F8313153B33320FFF7AFF800F0A8
:10180000BE013320FFF754F819213B20FFF750F8B1
:101810009DF807101A4B83F840112220FFF748F873
:1018200000210E20FFF744F800210D20FFF740F8BB
:101830000120FFF793F830F0F8031AD09DF8071055
:101840002846FFF787FF0E4BD3F83401BFE733205C
:10185000FFF784F841B221F0410141F0010101F0AC
:10186000BF013320FFF724F81D213B20FFF720F8AC
:10187000CEE7FFF7E9F90120FEF70AFEDEE700BF39
:10188000E4030020D000002008B50A4601460020ED
:10189000FFF740F808BD000010B582B000238DF8B6
:1018A0000730A64B93F8E030012B04D0022B00F058
:1018B000288102B010BDA14B93F8E13043B3012B56
:1018C000F7D140211220FEF7F3FF1220FFF746F870
:1018D0008DF807009DF8073013F0200F00F0C3804B
:1018E00020211220FEF7E4FF944B93F832311BB90C
:1018F000924B002283F8E0209148FEF7E9FE914BDD
:101900001B68002BD5D01B69002BD2D09847D0E79D
:101910008A4B93F800310BBB884BB3F816110029A2
:1019200061D1B3F81831002B5DD1844B93F8FE30B0
:10193000002B51D101218448FFF7A6FF7F4CB4F85A
:101940001831B4F81611C91AC9B280481844FFF703
:101950009BFFB4F81631A4F8183151E03F20FEF790
:10196000FDFF8DF807009DF8073013F0020FD3D16B
:101970000B213E20FEF79CFF10213F20FEF798FF31
:101980006F48FEF7A5FE6D4B93F80231BBB9704866
:10199000FEF79EFE694B002283F8E020694B1B682E
:1019A00013B11B6903B19847644B002283F80C21E3
:1019B00083F80D21A3F81821A3F8162179E70D204B
:1019C000FEF7CCFF40F04001C9B20D20FEF770FFDA
:1019D0005F48FEF707FEE1E73220FEF7BFFF574BF7
:1019E000A3F81601AAE7554CB4F81831C91AC9B2C0
:1019F00056481844FFF748FFB4F81631A4F81831D8
:101A00004F48FEF765FE4D4B93F80231F3B94B4B4F
:101A1000002283F8E0204E48FEF75AFE494B1B682F
:101A20004BB19C683CB14549002391F90E21B1F8B6
:101A300016114648A047414B002283F80C2183F839
:101A40000D21A3F81821A3F8162132E70D20FEF787
:101A500085FF40F04001C9B20D20FEF729FF3C4848
:101A6000FEF7C0FDDAE71920FEF778FF43B2023334
:101A70009B10324C84F83C311A20FEF76FFF03B202
:101A800094F93C21002A33DB00EB23108B382B4BDD
:101A9000A3F83E011320FEF761FF284C84F84001B3
:101AA0001020FEF75BFF01460D20FEF701FF94F8C2
:101AB00040112648FFF7E8FE94F8323113B90022AE
:101AC00084F8E0201E48FEF703FE1E4B1B68002B27
:101AD0003FF4EFAE9C68002C3FF4EBAE174991F950
:101AE0003C31B1F93E2191F840111848A047E0E699
:101AF00000EB23139BB292B213448B3BA4F83E310C
:101B0000C8E71448FEF7E4FD0C4B93F8E130012BD5
:101B10000ED00A4B002283F8E0200A4B1B68002BF2
:101B20003FF4C7AE1B68002B3FF4C3AE9847C0E636
:101B300008211220FEF7BCFEEBE700BFE403002003
:101B400058050020CC000020FA040020D00000201E
:101B5000400500202805002010B5434B93F8E030E5
:101B6000012B02D0022B57D010BD3F4B93F8E13030
:101B7000ABB1012BF8D13D48FEF7AAFD8021122020
:101B8000FEF796FE384B002283F8E020384B1B68A6
:101B9000002BE9D0DB68002BE6D09847E4E7324B16
:101BA000B3F816315BB9304BB3F818313BB92E4B53
:101BB00093F8FE30EBB901212E48FFF765FE2A4B62
:101BC000B3F81611B3F81821881A93F81A3198420D
:101BD00016DB591EC9B228481044FFF755FE224AA9
:101BE00092F81A31B2F818110B44013BA2F81831DF
:101BF000BAE73220FEF7B2FE1B4BA3F81601DEE770
:101C0000891AC9B21C481044FFF73EFE164BB3F8C0
:101C10001621A3F81821A7E7134B93F8E130002B06
:101C2000A2D1114BB3F81621B3F81801141A93F886
:101C30001B118C420BDC111AC9B20F4B1844FFF771
:101C400089FD094BB3F81621A3F818218CE70A4B3C
:101C50001844FFF77FFD044B93F81B21B3F81811CC
:101C60000A44A3F818217FE7E40300205805002068
:101C7000CC000020FA040020D000002038B5044633
:101C80000D46FFF727F914B1012C0AD038BD074BD8
:101C900093F8FE30002BF9D129463220FEF708FEDA
:101CA000F4E729462320FEF703FEEFE7E4030020D4
:101CB00010B504460120FFF70DF9074B83F83841B2
:101CC00024B912213920FEF7F3FD10BD342139204B
:101CD000FEF7EEFDF9E700BFE403002038B5344B12
:101CE00093F8E030012B02D0022B36D038BD304BB8
:101CF00093F8E13043B12F4B1B68002BF6D0DB6823
:101D0000002BF3D09847F1E7294C84F80C3184F884
:101D10000D31A4F81831A4F816310B213E20FEF73E
:101D2000C7FD10213F20FEF7C3FD94F8023163B1D7
:101D30000D20FEF713FE40F04001C9B20D20FEF762
:101D4000B7FD1D48FEF74EFCD5E7194B002283F87E
:101D5000E0201948FEF7BCFCCDE704F0F3F80020C2
:101D6000FEF742FF00240CE0144A04EB4403D518AC
:101D7000D05CFFF7AFF8A9786878FEF799FD0134D9
:101D8000E4B2102CF0D90020FFF7A4F8084C94F826
:101D90003801FFF78DFF002384F8E030054B1B6806
:101DA000002BA3D05B68002BA0D098479EE700BF14
:101DB000E4030020CC00002040050020587F0008EC
:101DC00008B504F0BDF8013008BD08B501F068FAA7
:101DD00001F06EFA01F074FA08BD000082B02C4BDD
:101DE0005A6A42F080525A625B6A03F08053019350
:101DF000019B284A136823F4C05343F40063136023
:101E0000012292FAA2F3B3FA83F303F1845303F5A8
:101E10008E139B001A60022393FAA3F31C4B1968DC
:101E2000022393FAA3F3B3FA83F303F01F0301220F
:101E300002FA03F30B42EED04FF0807393FAA3F350
:101E4000B3FA83F303F1845303F58E139B001A60F6
:101E50004FF0007393FAA3F30D4B19684FF0007322
:101E600093FAA3F3B3FA83F303F01F03012202FAF8
:101E700003F30B42ECD0064A936843F003039360EC
:101E8000034B9B6803F00C030C2BF9D102B0704795
:101E900000380240007000400B4B1B7803B17047C4
:101EA00010B50A4C0A492046FEF792FB4FF47A71AE
:101EB0002046FEF74DFC2046FEF794FB024B1B78B4
:101EC000002BFBD010BD00BFE9010020D001002095
:101ED000D51E000808B500F06BFD024B01221A70F8
:101EE00008BD00BFE9010020EFF31083036072B664
:101EF0007047036883F310887047704708B503483C
:101F000000F0BEFD03F0E8FF08BD00BF7004002034
:101F100008B501F0A9F901F098FA08BD034B1B7848
:101F20000BB1002070470120704700BFEA0100207C
:101F300000B583B001A8FFF7D7FFFFF7DFFF01F07F
:101F40003BFC094A136843F00403136001F0B2FC40
:101F500001F0A2FC01A8FFF7CCFF0121084601F027
:101F600067FC03B05DF804FB0070004008B5012178
:101F7000002001F02FFC08BD08B572B600F02CFB64
:101F800062B608BD38B50D461446A2B229460348CC
:101F9000FEF726FC0028F8D1204638BD980D002019
:101FA00030B583B00C4615460023019301ABAAB2AD
:101FB00021460848FEF718FC0028F7D1BDF8042098
:101FC00021460448FEF70CFC0028F7D1019803B025
:101FD00030BD00BF980D002008B50A4601460248F2
:101FE00005F020F8FEE700BFCC7F000800B597B0F1
:101FF0002F4B5A6A42F080525A625B6A03F0805358
:102000000093009B2B4A136823F4C05343F40063EE
:1020100013600623099300230A9301220C920B926A
:1020200010220D920222129213934FF40023149364
:102030004FF40003159309A801F094FC48BB0F234B
:102040000493032305930023069307930893012128
:1020500004A802F07FF908BB012301934FF48033F9
:10206000029301A802F032FBE8B902F0FDFA124B2C
:10207000A3FB0030800901F0A5F9042001F0C6F9A6
:10208000002211464FF0FF3001F040F917B05DF823
:1020900004FB4FF489710948FFF79EFF4FF48E71DE
:1020A0000648FFF799FF40F223110448FFF794FF19
:1020B0000038024000700040D34D62108C7F000851
:1020C00070B584B0334B1B78002B45D101F0C0F8BC
:1020D000002401940094234601224FF0FF312E4842
:1020E000FEF70EFA01940094234601224FF0FF31CF
:1020F0002A48FEF705FAFFF779FF0126284B1E70E4
:10210000284D4FF4806228492846FEF7CDF94FF458
:102110008062264905F10C00FEF7C6F92C3D032329
:10212000022231462846FEF73BFB029401940094BC
:1021300023464FF4612202212846FEF73AFB00F0C5
:10214000C7FAFFF742FEFFF7E9FEB04206D131467B
:10215000304600F0EBF901E0FFF740FE4FF0FF33AF
:10216000019305230093062307220021104800F065
:102170002DFD03F055FE074B1B7833B9054B0122AB
:102180001A70FFF7CBFE012801D004B070BDFFF735
:1021900083FEFAE7E8010020840900207005002092
:1021A000EA010020C40D00209809002084050020C9
:1021B0007004002000B583B001A8FFF795FEFFF77B
:1021C0007FFF01A8FFF795FE03B05DF804FB08B59B
:1021D00001F058F808BD000030B587B090F9004014
:1021E0006F2C44DC002B42D003614388019301290A
:1021F00013D0022914D0334B029315460446837A38
:1022000003930223049301A9406801F023F9032DED
:102210000DD8DFE805F008080E0A2B4B0293ECE717
:102220002A4B0293E9E7032104E0012102E00021A7
:1022300000E002216388B3F5807F2ED020D8102BD8
:102240003CD016D8042B35D0082B35D0022B37D0F4
:10225000062594F9003003F00F031D4A42F823408D
:102260000022284601F052F8284601F095F807B000
:1022700030BD402B11D0802B0FD0202BE8D10CE0AB
:10228000B3F5805F14D00AD8B3F5806F10D0B3F5E2
:10229000006F0DD0B3F5007FDAD11725D9E7B3F57C
:1022A000804F05D0B3F5004F02D0B3F5005FCFD11A
:1022B0002825CEE70825CCE70925CAE70A25C8E77F
:1022C0000725C6E7000031100000111000002110A2
:1022D000EC01002038B590F900306F2B0CDC0D4676
:1022E000044650B194F90030B3F1FF3F04D0EAB294
:1022F0006188606801F026FA38BD40F20911024891
:10230000FFF76AFEEEE700BFFC7F000870B58AB0F9
:102310009DF838406F2929DC0170B1F1FF3F25D0CD
:1023200001F00F060125B540458011F0F0011FD1E5
:102330003D49416001F56051CD6945F00105CD6130
:10234000C96901F0010100910099418805918472E9
:10235000079402210891002A48D1002306930446DD
:10236000012A5CD005A9606801F074F80AB070BD5C
:10237000102911D020291DD0302929D02B494160A6
:1023800001F51051CD6945F02005CD61C96901F015
:10239000200104910499D8E72549416001F5505185
:1023A000CD6945F00205CD61C96901F002010191D5
:1023B0000199CAE71F49416001F54051CD6945F0D7
:1023C0000405CD61C96901F0040102910299BCE7DD
:1023D0001949416001F53051CD6945F00805CD61DD
:1023E000C96901F0080103910399AEE7032A06D0F9
:1023F000022A07D0012B0FD001230693AFE7032356
:102400000693ACE7012B04D0022306930F9B09939C
:10241000A5E712230693F9E7112306939FE70F9987
:10242000FFF758FF9EE700BF000002400014024083
:102430000004024000080240000C024090F9003005
:102440006F2B12DC10B5044648B194F90030B3F19B
:10245000FF3F03D06188606801F090F910BD40F241
:1024600021110248FFF7B8FDEFE77047FC7F000835
:1024700008B5012001F092F908BD08B5022001F06D
:102480008DF908BD08B5042001F088F908BD08B52C
:10249000082001F083F908BD08B5102001F07EF98D
:1024A00008BD08B5202001F079F9402001F076F947
:1024B000802001F073F94FF4807001F06FF94FF450
:1024C000007001F06BF908BD08B54FF4806001F0B1
:1024D00065F94FF4006001F061F94FF4805001F0AC
:1024E0005DF94FF4005001F059F94FF4804001F0CC
:1024F00055F94FF4004001F051F908BD08B578B91D
:102500000023094A52F823301BB11A690AB1D8686E
:10251000904708BD52080133DBB2012AFAD1F0E737
:1025200002460023F9E700BFEC01002030B583B07C
:1025300005460C4601A8FFF7D7FC54B1012C03D186
:10254000074A13681D43156001A8FFF7D2FC03B0CA
:1025500030BD034A136823EA05051560F4E700BFA0
:102560002C02002030B583B005460C4601A8FFF7C9
:10257000BBFC54B1012C03D1074A13681D431560FD
:1025800001A8FFF7B6FC03B030BD034A136823EA85
:1025900005051560F4E700BF3002002010B582B0D9
:1025A00001A8FFF7A1FC084B1B6823B9074B1B6868
:1025B00043B1012400E0002401A8FFF79AFC204663
:1025C00002B010BD0224F7E7300200202C020020E8
:1025D000704770477047000008B50A4B1B683BB94D
:1025E000094B1B684BB9FFF7F4FFFFF7F3FF08BD7A
:1025F000FFF7BCFCFFF7ECFFF9E7FFF799FCFFF7EB
:10260000D9FDF4E7300200202C020020F8B507467F
:102610000C460022244802F0A3FC6668224D0022EA
:102620003946284602F06EFC00222146284602F078
:1026300097FC6368B342F0D1F97840F2B55202FBDF
:1026400001F20332960811F0030F2BD017497D7861
:10265000013DC5EB051205EB8202013202EBD2709F
:102660006A0021FA02F202F00302C2EB6002324475
:10267000B9780A44013AA57820786178C1EB011154
:1026800089004FF4616404FB00112944084800FBF1
:102690000212950D9402C3F57F730333E01845F1E0
:1026A0000001F8BD0349D2E760020020A0AA99000A
:1026B000805101005055440010B5044C211D04F117
:1026C0001800FFF7A3FF206010BD00BF84020020A8
:1026D000294B1B7803B1704770B586B04FF4800268
:1026E00092FAA2F2B2FA82F2244B13449B00012622
:1026F0001E60234D234B2B6000246C601F23AB60B6
:1027000040F2FF33EB602C616C61AC61284602F053
:102710007DF98DF817408DF815608DF8166006A9C3
:1027200001F8046D2246284602F02AFB8DF800408D
:102730008DF801408DF8024001948DF80340049417
:10274000039422466946284602F014FA284602F00D
:1027500090FE22463146292000F0D8FD292000F0C5
:102760001BFE4FF48071284602F0C6F8FFF7A4FF65
:10277000014B1E7006B070BD80020020A0C19110F8
:102780006002002000280040014B1868704700BF1D
:10279000840200200320704708B501467D220023F3
:1027A000C001490E04F084FA08BD810AC0F3090390
:1027B0004FF47A7000FB03F39B0A00FB0130704773
:1027C00010B5084C4FF48071204602F095F822684D
:1027D000D368DBB263F4C073D360034B4FF40032B1
:1027E0005A6110BD6002002000040140F0B587B0BE
:1027F0000446494F01AD3E1D0FCE0FC5BB69009386
:10280000FFF7DEFFBDF80860C6F57F760336B6B287
:10281000C4F309031E44B6B2A00A9DF8025005E0B5
:10282000A0F5A830A0F5C070691C8DB23B4B984252
:10283000F6D89DF8043003E0A0F5616001339BB247
:10284000B0F5616FF8D29DF8052002E03C38013206
:1028500092B23B28FAD89DF8061080B2084480B2A4
:1028600004E0A6F58064A6B2013080B2B6F5806FB0
:10287000F7D203E03C3880B2013292B23B28F9D85B
:1028800003E03C3A92B201339BB23B2AF9D803E011
:10289000183B9BB2691C8DB2172BF9D89DF8031019
:1028A00011F0030F0DD19DF8011001391C4C615C32
:1028B0008CB2AC4212D295FBF1F401FB14518DB2F3
:1028C0000CE09DF801100139164C615C8CB2AC42F1
:1028D00004D295FBF1F401FB14518DB2C6F57F765D
:1028E000033611494E604FF020648C6188704A7045
:1028F0000B7081F820509DF80730CB700022CA6120
:102900004A614FF480734B62CA600A61074802F063
:102910005FFB07B0F0BD00BF840200207F510100C3
:102920005080000844800008380200206002002027
:1029300000B587B001A96846FFF768FE07B05DF8EB
:1029400004FB000000B587B001A96846FFF75EFEF2
:10295000024B1B68C01A07B05DF804FB840200201C
:1029600070B50646114BB3F900400334E517FFF785
:10297000E9FF301A0021844275EB01030BDA0021D4
:102980000420FFF7EFFDFFF709FE012808D03046CD
:10299000FFF72CFF70BD01210420FFF7E3FDF2E7F4
:1029A000024BB3F90030F61AF1E700BF3402002001
:1029B0001C4B1B7803B1704770B586B0292000F01E
:1029C00017FD012801D006B070BD164B01221A7008
:1029D00001A96846FFF71AFE0446134D00234FF481
:1029E00080722946114802F0C7FCA8786B782A78D3
:1029F00095F8201001EB4101CE003244C2EB0212E7
:102A000091000B44C3EB03139A0002446B68C3EBC1
:102A1000822303F2FF33E41AA4B2054B1A8814444C
:102A20001C80D0E73602002038020020600200201F
:102A30003402002008B5FDF70BFE08BD08B50021E3
:102A40000420FFF78FFD0C4B4FF400325A610B4B03
:102A50001B689A6812F4805F03D0DA6812F4807FF2
:102A600000D108BDDA68D2B262F4C072DA600348FD
:102A7000FFF7E0FFF5E700BF00040140600200201F
:102A800030B583B004460278164B582000FB023064
:102A900002F00DFD204610F9041F00250195009558
:102AA0002B460122FDF72CFD204610F9181F019539
:102AB000022300932B460122FDF722FD204610F948
:102AC0002C1F019500952B460122FDF719FD20468C
:102AD00010F9401F0122019200922B46FDF710FDD4
:102AE00003B030BDA0020020F0B49DF9105004786E
:102AF000214E582707FB04640026A66059BB0178C5
:102B00001D4C07FB01410024CC6006781A4958246B
:102B100004FB06163261027804FB0212536103784B
:102B200004FB031300221A62037804FB03135A62A6
:102B3000037804FB03139A62037804FB0311072351
:102B4000CB628DB103780C4A582101FB032300228C
:102B50005A60F0BC70470178074C582606FB0141CB
:102B60004FF40064CC60D0E70378034A04FB0323EE
:102B70004FF482725A60ECE7A0020020114B1A68F1
:102B800000238A4203D901335208062BF9D913F0E6
:102B9000040F11D1002213F0020F0FD100210A43BC
:102BA00013F0010F0CD00823134302780649582074
:102BB00000FB0212D36170472022ECE71021EEE700
:102BC0000023F1E71C000020A00200202DE9F04FB7
:102BD00087B004460D46924699469DF940809DF97E
:102BE000447005A8FFF780F92570002D5DD1584B82
:102BF0005A6942F480525A615A6922F480525A61E9
:102C00001A6A42F480521A621B6A03F480530393D7
:102C1000039B582303FB05F34E4A4F49D1504FF015
:102C2000050BCDF804B0022600960023324651462B
:102C3000201DFDF765FCCDF804B000960023324658
:102C4000494604F11800FDF75BFCCDF804B000968E
:102C500000233246414604F12C00FDF751FCCDF82B
:102C600004B00123009300233246394604F14000AA
:102C7000FDF746FCB7F1FF3F5BD001230093002333
:102C80001A4619462046FFF72FFF34492046FFF722
:102C900075FF304B582000FB053002F01BFC05A8E7
:102CA000FFF727F907B0BDE8F08F294B9A6942F486
:102CB00080429A619A6922F480429A615A6A42F487
:102CC00080425A625B6A03F480430493049B582356
:102CD00003FB05F31F4A2249D1504FF0050BCDF8F5
:102CE00004B002260096002332465146201DFDF70F
:102CF00007FCCDF804B0009600233246494604F1A3
:102D00001800FDF7FDFBCDF804B000960023324615
:102D1000414604F12C00FDF7F3FBCDF804B001238C
:102D2000009300233246394604F14000FDF7E8FBEA
:102D3000A0E7084A582303FB05234FF400729A6169
:102D4000002100910B460A462046FFF7CDFE9CE786
:102D500000380240A0020020003001408096980018
:102D60000038004030B583B00D460446002831D00D
:102D70000278582303FB02F3194AD35853B322783D
:102D8000582303FB02F3164AD258136843F040035A
:102D9000136001A8FFF7A8F82278582303FB02F379
:102DA0000F4AD3589A6812F0020FF5D0EDB2DD60E9
:102DB0002278582303FB02F3094AD3589A6812F089
:102DC000010FF5D0DC68E4B201A8FFF792F82046C5
:102DD00003B030BD94210348FFF7FEF8CFE700BFF2
:102DE000A00200205C8000080170FF292AD0F0B505
:102DF00085B01E4611460546134CA36943F40033C3
:102E0000A361A36923F40033A361636A43F400332D
:102E10006362636A03F400330393039B07270197FC
:102E200001240094002302220430FDF769FB01977E
:102E3000009400230222314605F11800FDF760FBE3
:102E400005B0F0BD704700BF00380240F8B59DF8EE
:102E50001C609DF820500778FF2F37D01C46474B49
:102E6000474F1F605A60002936D1036B002B2ED0CC
:102E7000424B08225A61002C4FD1404B00229A60ED
:102E80009DF81830022B4FD13C4B4FF40052DA60C2
:102E9000002E4DD1394B00221A61002D54D1374BF1
:102EA00000229A6135480023C36102F0E7FD002843
:102EB0005FD100220121262000F028FA262000F010
:102EC0006BFA01222F492D4802F091FEF8BD4E21E8
:102ED0002D48FFF781F8CBE7012909D0022917D146
:102EE000036B83B1C36B73B1244B0C225A61C2E7ED
:102EF000C36B1BB1214B04225A61BCE75621224807
:102F0000FFF76AF8F6E75E211F48FFF765F8EBE781
:102F100064211D48FFF760F8ADE7012CB0D1174BD5
:102F20004FF480529A60ABE7144B0022DA60AFE7AF
:102F3000012E04D0114B4FF4C0621A61ADE70F4B64
:102F40004FF480621A61A8E7012D08D0022D0BD042
:102F5000032DA7D1094B4FF440729A61A2E7074BAA
:102F60004FF480729A619DE7044B4FF400729A61AE
:102F700098E79D210448FFF72FF89AE754030020B3
:102F80000044004050030020A08000080378FF2B7D
:102F900023D030B583B00D46044601A8FEF7A4FF48
:102FA0000F4B1D702C342046FDF79FFA80B90C4B57
:102FB00019782046FDF77EFA0A4B1A68D36843F069
:102FC0004003D36001A8FEF794FF002003B030BD9A
:102FD00001A8FEF78EFF0120F8E7FF20704700BF31
:102FE00051030020540300200378FF2B1AD030B582
:102FF00083B00D46044601A8FEF776FF383420461C
:10300000FDF76CFA48B92046FDF75EFA287001A872
:10301000FEF76FFF002003B030BD01A8FEF769FF87
:103020000120F8E7FF2070470378FF2B19D02DE926
:10303000F04190460F460646002545450FD2002434
:10304000795D3046FDF7C4FB30B10134E4B20A2C9F
:10305000F6D90120BDE8F0810135ADB2EDE70020E1
:10306000F8E7FF2070472DE9F04107460E46154668
:1030700098460024AC4207D231193846FDF7ACFB24
:1030800010B90134A4B2F5E7A8F8004014B100204B
:10309000BDE8F0810120FBE708B50A48FDF71EFAFC
:1030A00028B1094B5B6C0BB10020984708BD05485F
:1030B000FDF70AFA054908700122054802F064FD8F
:1030C000EFE700BFC40D0020980D00205103002041
:1030D0005403002008B50A48FDF707FA50B1094B20
:1030E0005B6C0BB10120984701220749074802F0A9
:1030F0007EFD08BD044B19780148FDF7DBF9EEE7CA
:10310000D00D0020980D0020500300205403002013
:1031100008B501220249034802F069FD08BD00BF5D
:10312000500300205403002008B50F4B1B681A6899
:10313000DB6812F0400F12D003F040037BB10A4B62
:1031400093F83930DBB2222B05D0074B93F8393096
:10315000DBB2322B03D1044B322283F839200248F0
:1031600002F0F5FD08BD00BF540300207047FEE7E4
:10317000FEE7FEE7704704E00A7802701A46013164
:103180000130531E9BB2002AF6D17047002103E0A4
:103190000B4B5B58435004310A480B4B42189A4280
:1031A000F6D30A4A02E0002342F8043B084B9A4255
:1031B000F9D300F011F803F0FDFEFDF733F8704786
:1031C000B8850008000000208C0000208C00002042
:1031D000FC0D0020FEE700000E4B1A6842F48072DE
:1031E0001A6099680C4A0A409A601A6822F088525C
:1031F00022F001121A601A6822F480221A609A687A
:1032000022F47D029A600022DA60044B4FF00062E3
:103210009A607047003802400CC0FF8800ED00E063
:103220007047000010B50446074B1868074BA3FB16
:103230000030800900F0C6F8002221464FF0FF3030
:1032400000F064F8002010BD1C000020D34D621077
:1032500008B5032000F03CF80020FFF7E3FFFFF77C
:10326000DFFF002008BD0000024A1368013313602D
:10327000704700BFE00D0020014B1868704700BF89
:10328000E00D002010B582B00190FFF7F5FF044675
:10329000FFF7F2FF001B019B9842F9D302B010BD6B
:1032A000024A536843F0010353607047002004E072
:1032B000024A536843F0020353607047002004E061
:1032C000024A536843F0040353607047002004E04F
:1032D00010B50446C31E042B0FD80A4AD36823F442
:1032E000E0631B041B0C240204F4E064234343F05A
:1032F000BF6343F40033D36010BDBC210248FEF726
:103300006BFEEAE700ED00E00C81000870B50546B1
:103310000C4616460F2A25D80F2C28D81B4BDB68E5
:10332000C3F30223C3F10702042A28BF0422191D94
:10333000062921D9033B4FF0FF3101FA02F224EABA
:1033400002049C4001FA03F326EA03063443002DED
:1033500014DB2401E4B205F1604505F5614585F80B
:10336000004370BDD4210A48FEF736FED4E7D521CC
:103370000748FEF731FED1E70023DCE705F00F0533
:103380002401E4B2034B5C55EBE700BF00ED00E025
:103390000C81000814ED00E010B5041E08DB04F0F9
:1033A0001F02640901239340044A42F8243010BDEF
:1033B000E8210348FEF710FEF1E700BF00E100E05E
:1033C0000C8100080138B0F1807F0AD2064B5860AA
:1033D000064AF02182F823100020986007221A6024
:1033E00070470120704700BF10E000E000ED00E0F2
:1033F00043094033044A52F8233000F01F0023FAF7
:1034000000F000F00100704700E100E010B5044654
:10341000042800D038B9042C0BD0094A136823F0D3
:103420000403136010BD40F2E1110648FEF7D4FD1D
:10343000F1E7034A136843F004031360F2E700BFA7
:1034400010E000E00C810008704708B5FFF7FCFFB2
:1034500008BD00002DE9F04782B005460C46B34B8D
:1034600098421FD003F5806398421BD003F5806318
:10347000984217D003F58063984213D003F5806318
:1034800098420FD003F5006398420BD003F5806398
:10349000984207D0A3F50063984203D0C921A448FD
:1034A000FEF79AFD23689AB212B11B0C1B041BB1E4
:1034B000CA219F48FEF790FD6368012B1ED9112B8E
:1034C0001CD0022B1AD0122B18D09A4A934215D036
:1034D00002F58012934211D002F5801293420DD072
:1034E000A2F5F812934209D002F58012934205D05A
:1034F00002F58012934201D0032B04D1A368022B62
:1035000006D800264AE0CB218948FEF765FDF5E79D
:10351000CC218748FEF760FDF3E7DC218448FEF705
:103520005BFD72E0F1218248FEF756FD9BE0062329
:1035300000E000238B40034302327F4941F82230F0
:103540007E4B1A68FB4303EA0201606810F4803F77
:1035500001D047EA0201794A1160526803EA020188
:10356000606810F4003F01D047EA0201734A5160DD
:10357000926803EA0201606810F4801F01D047EAF4
:1035800002016E4A9160D2681340616811F4001F15
:1035900001D047EA0203694AD3600136276837FA47
:1035A00006F300F0BF804FF0010808FA06F818EAA9
:1035B0000707F2D06368022B01D0122B35D15B4B89
:1035C0009D421FD003F580639D421BD003F58063AD
:1035D0009D4217D003F580639D4213D003F58063AD
:1035E0009D420FD003F500639D420BD003F580632D
:1035F0009D4207D0A3F500639D4203D0DB214C48D8
:10360000FEF7EAFC23690F2B87D8F208083255F839
:10361000220006F0070399000F238B4020EA0300E5
:1036200023698B40034345F822302A684FEA460A53
:103630004FF0030909FA0AF96FEA090909EA0202D7
:10364000636803F0030303FA0AF313432B60636810
:103650005A1E012A03D9112B01D0122B15D1E36870
:10366000032B3FF65FAFAA6809EA0202E36803FA98
:103670000AF31343AB606B6823EA08086368C3F37B
:103680000013B34043EA08036B60EB6809EA0309DF
:10369000A36803FA0AF343EA0903EB60636813F0D3
:1036A000805F3FF47AAF264B1A6A42F001021A6239
:1036B0001B6A03F001030193019BB208911C1E4B8E
:1036C00053F8210006F0030399000F238B4020EAF2
:1036D0000300164B9D423FF42CAF03F580639D42DF
:1036E00016D003F580639D4214D003F580639D429C
:1036F00012D003F580639D4210D003F580639D4294
:103700000ED003F580639D423FF411AF072311E70C
:1037100001230FE702230DE703230BE7042309E747
:10372000052307E702B0BDE8F08700BF00000240B4
:1037300074810008000011100000014000040140E5
:103740000038024070B5064615460C4629B1012DD9
:1037500009D875B92404B46170BD4FF4DA71064814
:10376000FEF73AFCF3E740F2B5110348FEF734FCEC
:10377000EFE7B461F0E700BF7481000838B5054693
:103780000C4621B94FF4E5710348FEF725FC6B693F
:103790005C406C6138BD00BF7481000808B5054B02
:1037A0005B69034200D108BD024B5861FEF7A6FEDB
:1037B000F9E700BF00040140102393FAA3F3B3FA22
:1037C00083F39B0003F1844303F5602300221A6016
:1037D0007047000038B505460C46012814D8631E12
:1037E000DBB2012B16D80F4B186820F003002843DA
:1037F00018600D4A136923F004031361012C0FD0E4
:1038000040BF20BF20BF38BD40F2D1110748FEF7AE
:10381000E3FBE4E74FF4E9710448FEF7DDFBE2E780
:1038200030BFF0E70070004000ED00E0DC810008F0
:1038300038B505460C46012819D8631EDBB2012BAA
:103840001BD8124B186820F0030028431860104A58
:10385000136943F004031361012C14D040BF20BF4F
:1038600020BF0B4A136923F00403136138BD40F2F3
:10387000FF110848FEF7B0FBDFE74FF40071054881
:10388000FEF7AAFBDDE730BFEBE700BF00700040AA
:1038900000ED00E0DC8100084FF4806393FAA3F3AD
:1038A000B3FA83F39B0003F1844303F56023012201
:1038B0001A6070474FF4007393FAA3F3B3FA83F3DB
:1038C0009B0003F1844303F5602301221A607047D3
:1038D00082B0214B9B6813F0F00F2CD11E4B5B6A1A
:1038E00013F0805F08D01D4B1B6803F4C053B3F581
:1038F000C05F14D000211FE0174A536A43F0805381
:103900005362536A03F080530193019B134B1B686E
:1039100003F4C053516A21F080515162E7E7B0F5DA
:10392000404F01D0002107E00D4A136843F0040323
:103930001360012100E00021094A136823F001030C
:103940000B431360136803F001038B4202D0012084
:1039500002B070470020FBE70038024000700040D2
:10396000003C024070B582B0044650B3236813B1E6
:1039700013F01F0F2BD0236813F0010F4FD0636893
:10398000012B01D9052B28D1894B9B6803F00C032F
:10399000082B2DD0864B9B6803F00C030C2B22D0F8
:1039A0006368012B00F08280002B40F0A480804BE4
:1039B0001A6822F480321A601A6822F480221A608F
:1039C00079E04FF498717B48FEF706FBCEE740F2B2
:1039D00031117848FEF700FBCDE740F2371175480A
:1039E000FEF7FAFAD0E7724B9B6813F4803FD7D00A
:1039F0004FF4003393FAA3F36D4B19684FF400337F
:103A000093FAA3F3B3FA83F303F01F03012202FA3C
:103A100003F30B4203D06368002B00F04484236857
:103A200013F0020F00F0D780E368012B00F29780BB
:103A300023691F2B00F299805D4B9B6803F00C03F8
:103A4000042B00F09E805A4B9B6803F00C030C2B58
:103A500000F09180E368002B00F07881012292FA57
:103A6000A2F3B3FA83F303F1845303F58E139B009F
:103A70001A60FFF701FC0546022393FAA3F34C4BAF
:103A80001968022393FAA3F3B3FA83F303F01F0335
:103A9000012202FA03F30B4240F04881FFF7ECFBEE
:103AA000401B0228E8D9032000F004BC404A1368F8
:103AB00043F4803313606368002B32D0FFF7DCFBE4
:103AC00005464FF4003393FAA3F3394B19684FF4CA
:103AD000003393FAA3F3B3FA83F303F01F03012235
:103AE00002FA03F30B429AD1FFF7C6FB401B64288E
:103AF000E7D90320DEE3052B09D02D4B1A6822F409
:103B000080321A601A6822F480221A60D3E7284BA8
:103B10001A6842F480221A601A6842F480321A60ED
:103B2000C9E7FFF7A9FB05464FF4003393FAA3F367
:103B30001F4B19684FF4003393FAA3F3B3FA83F3DE
:103B400003F01F03012202FA03F30B423FF467AFB5
:103B5000FFF792FB401B6428E6D90320AAE340F25A
:103B60006B111448FEF738FA62E74FF4B67111484A
:103B7000FEF732FA60E70E4B9B6813F4803F7FF448
:103B800069AF022393FAA3F3094B1968022393FA4E
:103B9000A3F3B3FA83F303F01F03012202FA03F342
:103BA0000B4209D0E368934206D0012082E300BFB4
:103BB0000038024040820008C348436823F4F853A9
:103BC00021694FF4F85292FAA2F2B2FA82F201FAA3
:103BD00002F213434360236813F0100F75D0BA4B01
:103BE0009B6813F00C0F40F001814FF4007393FABF
:103BF000A3F3B54B19684FF4007393FAA3F3B3FA28
:103C000083F303F01F03012202FA03F30B4203D0F4
:103C1000A369002B00F04983E369FF2B00F2BE800B
:103C2000236A93B1B3F5005F0FD0B3F5804F0CD08A
:103C3000B3F5C04F09D0B3F5004F06D0B3F5204F10
:103C400003D0B3F5404F40F0AF80206A9E4B5B68D5
:103C500003F46043984240F2AD80FFF739FE00283C
:103C600040F0258398494B6823F46043226A13434C
:103C70004B604B6823F07F43E0694FF07F4292FA3C
:103C8000A2F2B2FA82F200FA02F213434B60236A04
:103C90004FF4604292FAA2F2B2FA82F2D3405A1C76
:103CA0004FF400439340884A926802F0F002F021FA
:103CB00091FAA1F1B1FA81F1CA4084498A5CD340FA
:103CC000834A13600020FFF7ADFA236813F0080F52
:103CD00000F059816369012B00F22B816369002B8D
:103CE00000F02D81012191FAA1F2B2FA82F2794B12
:103CF00013449B001960FFF7BFFA0546022393FAAD
:103D0000A3F2714A516B93FAA3F3B3FA83F303F06E
:103D10001F03012202FA03F30B4240F03481FFF744
:103D2000ABFA401B0228E9D90320C3E26648436886
:103D300023F4F85321694FF4F85292FAA2F2B2FA3E
:103D400082F201FA02F21343436044E7012393FA3B
:103D5000A3F3B3FA83F303F1845303F58E139B00AB
:103D600000221A60FFF788FA0546022393FAA3F3AC
:103D7000554B1968022393FAA3F3B3FA83F303F0C4
:103D80001F03012202FA03F30B423FF424AFFFF7B3
:103D900073FA401B0228E8D903208BE24FF4DB7151
:103DA0004D48FEF719F93BE740F2B7114A48FEF7D4
:103DB00013F94AE744494B6823F4604318434860C9
:103DC0004B6823F07F43E0694FF07F4292FAA2F202
:103DD000B2FA82F200FA02F213434B60206AFFF754
:103DE00077FD00283FF453AF012063E2A369012B64
:103DF0002CD8A369002B71D04FF4807393FAA3F3EE
:103E0000B3FA83F303F1845303F58E139B0001226D
:103E10001A60FFF731FA05464FF4007393FAA3F3E3
:103E2000294B19684FF4007393FAA3F3B3FA83F3A1
:103E300003F01F03012202FA03F30B420CD1FFF738
:103E40001BFA401B0228E7D9032033E240F2E311BA
:103E50002148FEF7C1F8CCE7E369FF2B2ED8236A8F
:103E6000B3B1B3F5005F13D0B3F5804F10D0B3F505
:103E7000C04F0DD0B3F5004F0AD0B3F5204F07D097
:103E8000B3F5404F04D04FF4FC711348FEF7A4F88B
:103E90000D494B6823F46043226A13434B604B681F
:103EA00023F07F43E0694FF07F4292FAA2F2B2FA28
:103EB00082F200FA02F213434B6006E740F2F71178
:103EC0000548FEF789F8CAE700380240E880000894
:103ED0001C000020A0C19110408200084FF48073A4
:103EE00093FAA3F3B3FA83F303F1845303F58E1328
:103EF0009B0000221A60FFF7BFF905464FF40073DC
:103F000093FAA3F3B24B19684FF4007393FAA3F337
:103F1000B3FA83F303F01F03012202FA03F30B4207
:103F20003FF4D3AEFFF7A8F9401B0228E6D90320DF
:103F3000C0E140F21721A748FEF74EF8CEE6012275
:103F400092FAA2F2B2FA82F2A34B13449B0000222F
:103F50001A60FFF791F90546022393FAA3F29C4AEF
:103F6000516B93FAA3F3B3FA83F303F01F03012217
:103F700002FA03F30B4206D0FFF77EF9401B02283A
:103F8000EAD9032096E1236813F0040F00F09E8025
:103F9000A368012B01D9052B23D18D4B5B6A13F04C
:103FA000805F24D18A4B5A6A42F080525A625B6A1F
:103FB00003F080530193019B0125884B1B6813F488
:103FC000807F16D0A368012B27D0002B49D1804BCE
:103FD0005A6B22F480725A635A6B22F480625A63DD
:103FE00020E040F243217B48FDF7F6FFD5E70025AE
:103FF000E3E77A4A136843F480731360FFF73CF9F0
:104000000646764B1B6813F4807FDBD1FFF734F94B
:10401000801B6428F5D903204CE16D4A536B43F4AF
:1040200080735363A36893B3FFF726F906464FF4F2
:10403000007393FAA3F2664A516B93FAA3F3B3FAAF
:1040400083F303F01F03012202FA03F30B423BD177
:10405000FFF712F9801B41F288339842E7D9032019
:1040600028E1052B09D05A4B5A6B22F480725A630F
:104070005A6B22F480625A63D4E7554B5A6B42F470
:1040800080625A635A6B42F480725A63CAE7FFF740
:10409000F3F806464FF4007393FAA3F24C4A516BBF
:1040A00093FAA3F3B3FA83F303F01F03012202FA96
:1040B00003F30B4208D0FFF7DFF8801B41F288338F
:1040C0009842E7D90320F5E0002D68D1636A022BFE
:1040D0006BD8636A002B00F0EC803D4A926802F0D6
:1040E0000C020C2A00F0E880022B40F0B080A36A9A
:1040F00013B1B3F5803F5ED1E36AE3B1B3F5802F2E
:1041000019D0B3F5002F16D0B3F5402F13D0B3F567
:10411000801F10D0B3F5A01F0DD0B3F5C01F0AD07B
:10412000B3F5E01F07D0B3F5001F04D040F2912192
:104130002848FDF751FF236BB3F5800F05D0B3F589
:10414000000F02D0B3F5400F3BD14FF0807393FACC
:10415000A3F3B3FA83F303F1845303F58E139B00A7
:1041600000221A60FFF788F805464FF0007393FAB3
:10417000A3F3174B19684FF0007393FAA3F3B3FA44
:1041800083F303F01F03012202FA03F30B4227D04B
:10419000FFF772F8401B0228E7D903208AE00C4A97
:1041A000536A23F08053536290E740F28721094815
:1041B000FDF712FF8DE74FF424710648FDF70CFF61
:1041C0009AE740F292210348FDF706FFBDE700BFE2
:1041D0000038024040820008A0C1911000700040E9
:1041E00036498B6823F47D03A26AE06A0243206BA0
:1041F000024313438B604FF0807393FAA3F3B3FA37
:1042000083F303F1845303F58E139B0001221A609C
:10421000FFF732F804464FF0007393FAA3F3274BED
:1042200019684FF0007393FAA3F3B3FA83F303F022
:104230001F03012202FA03F30B4206D1FFF71CF819
:10424000001B0228E7D9032034E0002032E04FF0C1
:10425000807393FAA3F3B3FA83F303F1845303F562
:104260008E139B0000221A60FFF706F804464FF0F9
:10427000007393FAA3F3114B19684FF0007393FA8C
:10428000A3F3B3FA83F303F01F03012202FA03F34B
:104290000B4206D0FEF7F0FF001B0228E7D90320EF
:1042A00008E0002006E0012004E0012002E00120F7
:1042B00000E0002002B070BD0120FBE700380240A2
:1042C000214B9B6803F00C02082A3BD00C2A11D02A
:1042D000042A37D01C4B586800F460404FF4604308
:1042E00093FAA3F3B3FA83F3D840431C4FF400408E
:1042F0009840704703F470114FF4701292FAA2F2D2
:10430000B2FA82F221FA02F210498A5C03F4400305
:104310004FF4400090FAA0F0B0FA80F023FA00F0D9
:104320000130094B9B6813F4803F05D0084B03FB19
:1043300002F2B2FBF0F07047054B03FB02F2B2FB56
:10434000F0F07047024870470038024000810008D2
:104350000024F40070B50D460446D0B1236813F074
:104360000F0F1CD0012D20D8B54B1B6803F00103A3
:10437000AB4226D2012D1ED0B14A136823F00103AF
:104380002B431360136803F00103AB4219D00120E3
:1043900070BD4FF43C71AB48FDF71EFEDEE740F206
:1043A000F121A848FDF718FEDCE740F2F221A5480C
:1043B000FDF712FED8E7A24A136843F00403136026
:1043C000DAE7236813F0020F18D0A3687BB1802BC3
:1043D0000DD0902B0BD0A02B09D0B02B07D0C02B29
:1043E00005D0D02B03D0E02B01D0F02B2AD1964A58
:1043F000936823F0F003A1680B439360236813F0E4
:10440000010F00F0B2806368032B21D86368022B90
:1044100024D0032B54D0012B67D04FF4007292FAB2
:10442000A2F2894A10684FF4007292FAA2F2B2FA2C
:1044300082F202F01F02012101FA02F2024221D1AE
:104440000120A5E740F209317E48FDF7C5FDCEE722
:104450004FF444717B48FDF7BFFDD7E74FF40032BE
:1044600092FAA2F2784A10684FF4003292FAA2F25D
:10447000B2FA82F202F01F02012101FA02F20242B4
:1044800000F0EE8070498A6822F0030213438B60CB
:10449000FEF7F2FE06466368022B39D0032B46D0A6
:1044A000012B53D0684B9B6813F00C0F5DD0FEF7C7
:1044B000E3FE801B41F288339842F3D9032067E77B
:1044C0004FF0007292FAA2F25F4A10684FF0007249
:1044D00092FAA2F2B2FA82F202F01F02012101FA6C
:1044E00002F20242CED1012052E7022292FAA2F257
:1044F000554A1068022292FAA2F2B2FA82F202F04F
:104500001F02012101FA02F20242BBD101203FE762
:104510004D4B9B6803F00C03082B26D0FEF7ACFE36
:10452000801B41F288339842F2D9032030E7464B92
:104530009B6803F00C030C2B17D0FEF79DFE801B2D
:1045400041F288339842F2D9032021E73E4B9B6821
:1045500003F00C03042B08D0FEF78EFE801B41F203
:1045600088339842F2D9032012E7354B1B6803F0D9
:104570000103AB4214D9012D0CD0314A136823F04A
:1045800001032B431360136803F00103AB4207D010
:104590000120FDE62A4A136843F004031360ECE7A8
:1045A000236813F0040F14D0E3685BB1B3F5806F98
:1045B00008D0B3F5A06F05D0B3F5C06F02D0B3F546
:1045C000E06F36D1204A936823F4E063E1680B433F
:1045D0009360236813F0080F15D023695BB1B3F51E
:1045E000806F08D0B3F5A06F05D0B3F5C06F02D0CF
:1045F000B3F5E06F2ED1144A936823F46053216918
:1046000043EAC1039360FFF75BFE0F4B9B6803F027
:10461000F003F02292FAA2F2B2FA82F2D3400B4AED
:10462000D35CD8400A4B18600020FEF7FBFD002049
:10463000AEE640F275310348FDF7CEFCC2E700BF9D
:10464000003C02404082000800380240E880000838
:104650001C0000204FF45F710248FDF7BDFCCAE763
:10466000012095E640820008014B1868704700BFA2
:104670001C00002008B5FFF7F7FF074B9B6803F409
:10468000E0634FF4E06292FAA2F2B2FA82F2D3400F
:10469000024AD35CD84008BD00380240F8800008C8
:1046A00008B5FFF7E1FF074B9B6803F460534FF435
:1046B000605292FAA2F2B2FA82F2D340024AD35C7A
:1046C000D84008BD00380240F8800008F0B583B03B
:1046D00004460368013B012B00F2A080236813F01D
:1046E000030F00F0F98013F0010F16D06368A3B137
:1046F000B3F5803F11D0B3F5003F0ED0B3F5403F86
:104700000BD0774A934208D002F10052934204D072
:1047100002F10052934240F08680236813F0020FAA
:1047200015D0A3689BB1B3F5803F10D0B3F5003F1F
:104730000DD0B3F5403F0AD0694A934207D002F149
:104740000052934203D002F10052934270D1654B64
:104750005B6A13F0805F70D1624B5A6A42F08052FC
:104760005A625B6A03F080530193019B01255E4B03
:104770001B6813F4807F62D05A4B1B6803F0C04360
:10478000626802F0C04199426DD002F44033B3F543
:10479000403F6ED0534B5B6B13F440332DD002F48B
:1047A00040329A4203D0226812F0010F08D1A26869
:1047B00002F440329A4220D0236813F0020F1CD03A
:1047C0004848416B21F440364FF4000393FAA3F2BA
:1047D000B2FA82F2454F3A4492004FF0010CC2F80F
:1047E00000C093FAA3F3B3FA83F33B449B00002287
:1047F0001A60466311F4807F42D1636803F440324B
:10480000B2F5403F59D037494B6B626802F44032F1
:1048100013434B63002D59D100205EE072213448D0
:10482000FDF7DAFB5AE77E213148FDF7D5FB74E747
:1048300084212F48FDF7D0FB89E7002597E72A4A16
:10484000136843F480731360FEF716FD0646264B8B
:104850001B6813F4807F8FD1FEF70EFD801B642848
:10486000F5D9032039E0A16801F0C04199428CD10B
:1048700090E71C4B1B6813F4003F8BD001202CE009
:10488000FEF7FAFC06464FF4007393FAA3F2154ABA
:10489000516B93FAA3F3B3FA83F303F01F030122DE
:1048A00002FA03F30B42A8D1FEF7E6FC801B41F2AB
:1048B00088339842E7D903200FE00A490A6822F0BA
:1048C000C04203F0C04313430B609CE74B6A23F0E4
:1048D00080534B62002000E0002003B0F0BD00BF19
:1048E000000003200038024000700040A0C1911079
:1048F000A48200087047000038B504460D46B1F5A3
:10490000807F02D0B1F5007F2FD1237F012B5AD0B9
:1049100001232377022363772368CA225A6223681C
:1049200053225A62B5F5807F25D02268936823F41C
:10493000007393602268936823F400539360FEF73A
:104940009BFC05462368DB6813F0020F33D1FEF7AA
:1049500093FC401BB0F57A7FF4D92368FF225A629A
:1049600003206077002323772CE04FF41F71174852
:10497000FDF732FBC9E72268936823F480739360E4
:104980002268936823F480539360FEF775FC054614
:104990002368DB6813F0010F0DD1FEF76DFC401B9F
:1049A000B0F57A7FF4D92368FF225A62032060773A
:1049B0000023237706E02368FF225A6201236377EE
:1049C0000020207738BD0220FCE700BF0C830008E0
:1049D00038B50368DA6812F0400F01D0002038BD06
:1049E00004464FF0FF32DA60FEF746FC05462368C6
:1049F000DB6813F0400F07D1FEF73EFC401BB0F51B
:104A00007A7FF4D90320EAE70020E8E7002800F0E5
:104A1000958038B5044602684A4B9A4203D0CB21B0
:104A20004948FDF7D9FA6368402B01D0002B5BD1D0
:104A3000A3687F2B5DD8E368B3F5004F5ED223698E
:104A400043B1B3F5001F05D0B3F5800F02D0B3F525
:104A5000C00F58D1636913B1B3F5801F58D1A36952
:104A600013B1B3F5802F58D1637F002B5AD00223A6
:104A700063772368CA225A62236853225A62204607
:104A8000FFF7A6FF0246002851D121688B6823F466
:104A9000E00323F040038B60206881686368256928
:104AA0002B4365692B430B4383602368E1681961DD
:104AB00021680B69A06843EA00430B612168CB6859
:104AC00023F08003CB6021680B6C23F480230B64FC
:104AD00021680B6CA06903430B642368FF215962B2
:104AE00001236377104638BDCC211748FDF774FACF
:104AF0009EE7CD211448FDF76FFA9CE7CE211248BE
:104B0000FDF76AFA9BE7CF210F48FDF765FAA1E7A9
:104B1000D0210D48FDF760FAA1E7D1210A48FDF741
:104B20005BFAA1E723772046FFF7E4FE9FE72368BF
:104B3000FF225A62042363770122D3E70122104641
:104B4000704700BF002800400C830008002302E0EB
:104B500001330A38C0B20928FAD81B01DBB2184366
:104B60007047030903EB83035A0000F00F00104461
:104B7000C0B2704770B504460D461646012A2AD8C1
:104B8000EB68B3F5003F03D0B3F5803F00D043BBE3
:104B90002B6913B1B3F5802F29D1237F012B00F0AE
:104BA000EA800123237702236377002E6DD12368E7
:104BB0009B6813F0400F26D02B78013BDBB20B2B08
:104BC0001BD8EB7823B3402B22D040F26B116B48FB
:104BD000FDF702FA1CE040F25D116848FDF7FCF9B0
:104BE000CEE74FF4AF716548FDF7F6F9D0E740F234
:104BF0005F116248FDF7F0F9CFE74FF4B5715F48F8
:104C0000FDF7EAF9DDE70023EB702B78172B2AD8A4
:104C10006B783B2B2DD8AB783B2B30D82878FFF71F
:104C200095FF06046878FFF791FF46EA0026A8780A
:104C3000FFF78CFF3043EE7840EA06462368CA222D
:104C40005A62236853225A622046FFF7C1FE0028A9
:104C500064D02368FF225A620423637700232377FA
:104C60000123184670BD4FF4B8714448FDF7B4F9FC
:104C7000CEE74FF4B9714148FDF7AEF9CBE740F20A
:104C800073113E48FDF7A8F9C8E723689B6813F045
:104C9000400F15D02878FFF764FF01380B2809D89A
:104CA000EB78A3B1402B12D04FF4C0713348FDF71D
:104CB00093F90CE040F27F113048FDF78DF9EFE7F2
:104CC0000023EB702878FFF74CFF172814D868787A
:104CD000FFF747FF3B2815D8A878FFF742FF3B288E
:104CE00016D82E786878000240EA0640AE78304345
:104CF000EE7840EA0646A1E740F285111F48FDF72D
:104D00006BF9E4E740F287111C48FDF765F9E3E72A
:104D10004FF4C4711948FDF75FF9E2E7236806F024
:104D20007F3626F0FE461E602268936823F48023B7
:104D3000936021688B68EA682869024313438B609B
:104D40002268D36823F08003D360204600F072FB12
:104D5000034638B92268FF2151620122627700229E
:104D600022777EE72368FF225A62042363770023B9
:104D70002377012375E7022373E700BF0C83000844
:104D800070B504460D461646012A49D8237F012BEB
:104D900000F0B38001232377022363773EB96B7859
:104DA00013F0100F03D003F0EF030A336B702B786E
:104DB000013BDBB2062B39D8002E4FD1EB78632BA9
:104DC0003AD86B78013BDBB20B2B3BD8AB78013B7D
:104DD000DBB21E2B3CD8E878FFF7B8FE06046878F3
:104DE000FFF7B4FE46EA0026A878FFF7AFFE30438F
:104DF0002D7840EA45352368CA225A622368532237
:104E00005A622046FFF7E4FD002855D02368FF22B0
:104E10005A6204236377002323770123184670BD69
:104E20004FF4EC713648FDF7D7F8AFE74FF4F27165
:104E30003348FDF7D1F8BFE74FF4F4713048FDF780
:104E4000CBF8BEE740F2E9112D48FDF7C5F8BDE704
:104E50004FF4F5712A48FDF7BFF8BCE7E878FFF793
:104E600080FE632816D86878FFF77BFE01380B2890
:104E700016D8A878FFF775FE01381E2816D8EB78EB
:104E80006878000240EA0340AB7818432D7840EA86
:104E90004535B0E740F2F3111948FDF79DF8E2E718
:104EA00040F2F5111648FDF797F8E2E740F2F711E6
:104EB0001348FDF791F8E2E7236825F07F4525F0D8
:104EC000C0055D602268D36823F08003D36020466C
:104ED00000F0B0FA034638B92268FF21516201227E
:104EE00062770022227799E72368FF225A6204231F
:104EF000637700232377012390E702238EE700BF27
:104F00000C830008F8B506460C461546012A1ED843
:104F100033685B6823F07F4323F0C003180CE07014
:104F2000C3F30427677003F03F06A670C3F3423350
:104F3000237055B9FFF715FEE0703846FFF711FEF4
:104F400060703046FFF70DFEA0700020F8BD40F203
:104F500045210248FDF740F8DAE700BF0C8300085E
:104F600070B505460C461646012A1CD82B689B6A6C
:104F70009BB263602B681B69C3F30E03A3602B68AD
:104F80001B6803F07F3323F0FE431A0C02F03F004E
:104F90002070C3F306216170A37002F04002E2703A
:104FA0003EB1002070BD4FF480710848FDF714F841
:104FB000DCE7FFF7D6FD20706078FFF7D2FD607068
:104FC000A078FFF7CEFDA070EBE700BF708300086C
:104FD000F8B505460C461646012A66D8636AB3F54D
:104FE000807F02D0B3F5007F65D1636913F07F3F06
:104FF00067D1E36913B1B3F1804F68D16368B3F54A
:10500000004F6AD2A3698BB3B3F1807F2ED0B3F186
:10501000007F2BD0B3F1407F28D0B3F1806F25D033
:10502000B3F1A06F22D0B3F1C06F1FD0B3F1E06F26
:105030001CD0B3F1006F19D0B3F1106F16D0B3F1DB
:10504000206F13D0B3F1306F10D0B3F1406F0DD09B
:10505000B3F1506F0AD0B3F1606F07D0B3F1706F46
:1050600004D040F20621B248FCF7B6FF2B7F012B9B
:1050700000F07E8101232B7702236B77002E40F016
:10508000BA802B689B6813F0400F32D02378013B25
:10509000DBB20B2B27D8E37883B3402B2ED040F222
:1050A0001321A348FCF798FF28E04FF40071A048B3
:1050B000FCF792FF92E740F201219D48FCF78CFF3C
:1050C00093E740F202219A48FCF786FF91E740F20D
:1050D00003219748FCF780FF90E740F205219448B0
:1050E000FCF77AFF8EE740F212219148FCF774FF3B
:1050F000D1E70023E3702378172B58D863783B2B34
:105100005BD8A3783B2B5ED8E369002B67D194F87A
:105110002030013BDBB21E2B5BD82078FFF716FD59
:1051200006046078FFF712FD46EA0026A078FFF734
:105130000DFD0643E07846EA004694F82000FFF7AC
:1051400005FD46EA0066E069064360690643676854
:10515000A3691F432B68CA225A622B6853225A62E2
:10516000636AB3F5807F00F0B3802A68936823F404
:10517000007393602A68D368DBB263F42073D36052
:10518000FEF77AF804462B68DA6812F0020F40F056
:10519000D180FEF771F8001BB0F57A7FF3D92B6848
:1051A000FF225A620320687700232B77DFE04FF459
:1051B00006715F48FCF710FFA0E740F21A215C4837
:1051C000FCF70AFF9DE740F21B215948FCF704FF5A
:1051D0009AE740F21F215648FCF7FEFE9DE794F83F
:1051E0002030013BDBB2062B97D940F223215048F7
:1051F000FCF7F2FE91E72B689B6813F0400F15D087
:105200002078FFF7AEFC01380B2809D8E378A3B16A
:10521000402B12D040F233214548FCF7DDFE0CE074
:1052200040F232214248FCF7D7FEEFE70023E3705B
:105230002078FFF796FC172825D86078FFF791FCB7
:105240003B2826D8A078FFF78CFC3B2827D8E369B9
:105250008BBB94F82000FFF784FC01381E2824D86B
:1052600023786678360246EA0346A3781E43E3783D
:1052700046EA034694F8203046EA0366E3691E4393
:105280006069064363E74FF40E712948FCF7A4FEFA
:10529000D3E740F23B212648FCF79EFED2E74FF4CD
:1052A0000F712348FCF798FED1E740F241212048D6
:1052B000FCF792FED4E794F82000FFF752FC013887
:1052C0000628CDD940F246211948FCF785FEC7E7EC
:1052D0002A68936823F4807393602A68D368DBB2EA
:1052E00063F4C073D360FDF7C7FF04462B68DA6828
:1052F00012F0010F0DD1FDF7BFFF001BB0F57A7F53
:10530000F4D92B68FF225A620320687700232B7799
:105310002DE0DE612B685F642A68936843F4807334
:1053200093602A68936843F4805393600FE000BF52
:10533000708300081E622B689F642A68936843F498
:10534000007393602A68936843F400539360094B99
:105350001A6842F400321A609A6842F400329A6085
:105360002B68FF225A6201236B7700202877F8BD53
:105370000220FCE700040140F8B507460C4616463B
:105380001D46012B2CD8B6F5807F02D0B6F5007FE4
:105390002CD1B6F5807F2FD04FF4007363623A684A
:1053A000136A916CC1F30E01C3F3074202F03F0090
:1053B0002070C3F30626667003F07F06A67002F025
:1053C0004002E2706160C3F3056284F8202003F0BC
:1053D0008042E26103F080336361B5B10020F8BD23
:1053E00040F2C9211248FCF7F7FDCCE740F2CA2190
:1053F0000F48FCF7F1FDCCE74FF4807363623A6825
:10540000D369516CC1F30E01CEE7FFF7AAFB207000
:105410006078FFF7A6FB6070A078FFF7A2FBA07092
:1054200094F82000FFF79DFB84F82000D6E700BF2A
:105430007083000838B503689A6812F0200F01D015
:10544000002038BD0446DA6822F0A002DA60FDF7D9
:1054500013FF05462368DB6813F0200F07D1FDF723
:105460000BFF401BB0F57A7FF4D90320E9E7002059
:10547000E7E7037F012B16D001220277022343774F
:105480000368CA21596203685321596201688B6815
:1054900043F020038B600368FF21596242770023A9
:1054A000037718467047022070477047704778B1FD
:1054B00010B504460268136823F040031360FFF739
:1054C000F5FF0020606584F8510084F8500010BD9D
:1054D00001207047002800F0CA8010B50446036818
:1054E000644A93420BD0A2F57842934207D002F56A
:1054F0008062934203D054215F48FCF76DFD6368DE
:1055000013B1B3F5827F75D1A3682BB1B3F5806F6A
:1055100002D0B3F5004F72D1E368B3F5006F01D04C
:10552000002B71D123690BB1022B72D16369012B5E
:1055300074D8A369B3F5007F03D013B1B3F5802FFE
:1055400071D1E3696BB1082B0BD0102B09D0182B4C
:1055500007D0202B05D0282B03D0302B01D0382B9F
:1055600066D1236A0BB1802B67D1636A0BB1102B14
:1055700068D1A36A13B1B3F5005F68D1E36A013B58
:105580004FF6FE72934267D894F85130002B68D0E2
:10559000022384F851302268136823F0400313601B
:1055A0006368A2681343E268134322691343626984
:1055B0001343A26902F400721343E2691343226A9F
:1055C0001343A16A22680B431360638B03F0040347
:1055D000616A22680B4353602368E26A1A61226899
:1055E000D36923F40063D36100206065012384F84C
:1055F000513010BD55212048FCF7EEFC84E75621C0
:105600001D48FCF7E9FC87E757211B48FCF7E4FC41
:1056100088E758211848FCF7DFFC87E7592116482E
:10562000FCF7DAFC85E75A211348FCF7D5FC88E73C
:105630005B211148FCF7D0FC93E75C210E48FCF796
:10564000CBFC92E75D210C48FCF7C6FC91E75E219C
:105650000948FCF7C1FC91E75F210748FCF7BCFC57
:1056600092E784F850302046FFF71FFF90E70120B3
:10567000704700BF00300140D883000890F83930EF
:10568000DBB2122B01D0322B2AD18368B3F5805FB5
:1056900016D0036A5A1C02621A7803685A60C38CD7
:1056A000013B9BB2C384EBB90268D36823F080034B
:1056B000D3600268D36843F04003D3600020704792
:1056C000036A1B880268C3F30803536003691BB9AC
:1056D000036A02330362E2E7036A01330362DEE72F
:1056E00002207047002070472DE9F84304464268C5
:1056F000B04B9A4200F29780E3681BB1B3F5005FAC
:1057000040F09780236933B1B3F5806F03D0B3F5D0
:10571000C06F40F09480636933F00C0200D123B96C
:1057200040F25971A448FCF757FC2268136923F42E
:105730004053E1680B431361A36822691343626914
:105740001343E2691A432168CB6823F4164323F01C
:105750000C031343CB602268536923F44073A1699F
:105760000B435361E369B3F5004F6ED02268934B4E
:105770009A4200F02781FEF77DFF00EB800000EBEE
:1057800080006568AD00B0FBF5F58D4FA7FB0535D2
:105790006D092E01FEF76EFF00EB800000EB80002C
:1057A0006568AD00B0FBF5F9FEF764FF00EB800023
:1057B00000EB80006568AD00B0FBF5F5A7FB053593
:1057C0006D094FF0640808FB15952D013235A7FBD4
:1057D00005356D0905F0F0053544FEF74BFF00EB8C
:1057E000800000EB80006668B600B0FBF6F6FEF7BE
:1057F00041FF00EB800000EB800063689B00B0FB82
:10580000F3F0A7FB0030400908FB10684FEA0818C6
:1058100008F13208A7FB0837C7F3431723682F4462
:105820009F60BDE8F88340F256716348FCF7D4FBF3
:1058300062E740F257716048FCF7CEFB62E74FF435
:10584000EB615D48FCF7C8FB65E722685B4B9A4259
:1058500057D0FEF70FFF00EB800000EB800065687B
:105860006D00B0FBF5F5564FA7FB05356D092E0110
:10587000FEF700FF00EB800000EB800065686D0024
:10588000B0FBF5F9FEF7F6FE00EB800000EB8000C0
:1058900065686D00B0FBF5F5A7FB05356D094FF0A8
:1058A000640808FB1595ED003235A7FB05356D0939
:1058B0006D0005F4F8753544FEF7DCFE00EB800062
:1058C00000EB800066687600B0FBF6F6FEF7D2FECD
:1058D00000EB800000EB800063685B00B0FBF3F33B
:1058E000A7FB03235B0908FB13684FEAC80808F10C
:1058F0003208A7FB0837C7F3421723682F449F607D
:105900008FE7FEF7CDFE00EB800000EB80006568BE
:105910006D00B0FBF5F52A4FA7FB05356D092E018B
:10592000FEF7BEFE00EB800000EB800065686D00B6
:10593000B0FBF5F9FEF7B4FE00EB800000EB800051
:1059400065686D00B0FBF5F5A7FB05356D094FF0F7
:10595000640808FB1595ED003235A7FB05356D0988
:105960006D0005F4F8753544FEF79AFE00EB8000F3
:1059700000EB800066687600B0FBF6F6FEF790FE5E
:1059800000EB800000EB800063685B00B0FBF3F38A
:10599000A7FB03235B0908FB13684FEAC80808F15B
:1059A0003208A7FB0837C7F3421723682F449F60CC
:1059B00037E700BF00093D0040840008003801407F
:1059C0001F85EB51FEF76CFE00EB800000EB8000C2
:1059D0006568AD00B0FBF5F5264FA7FB05356D09F1
:1059E0002E01FEF75DFE00EB800000EB8000656895
:1059F000AD00B0FBF5F9FEF753FE00EB800000EBC5
:105A000080006568AD00B0FBF5F5A7FB05356D09B5
:105A10004FF0640808FB15952D013235A7FB0535BD
:105A20006D0905F0F0053544FEF73AFE00EB800005
:105A300000EB80006668B600B0FBF6F6FEF730FEBD
:105A400000EB800000EB800063689B00B0FBF3F389
:105A5000A7FB03235B0908FB13684FEA081808F14A
:105A60003208A7FB0837C7F3431723682F449F600A
:105A7000D7E600BF1F85EB517047000000287DD09E
:105A800010B5044683690BB303683D4A93420CD0BA
:105A9000A2F57442934208D002F58062934204D08A
:105AA0004FF482713748FCF797FAA3693BB3B3F51B
:105AB000807F24D0B3F5007F21D0B3F5407F1ED086
:105AC00040F205112F48FCF787FA18E003682C4ACA
:105AD000934214D0A2F57442934210D002F5806232
